:020000040000FA
:100000000C945D000C9485000C9485000C94850084
:100010000C9485000C9485000C9485000C9485004C
:100020000C9485000C9485000C9485000C9485003C
:100030000C9485000C9485000C9485000C9485002C
:100040000C9466020C9485000C94D6020C94B002B9
:100050000C9485000C9485000C9485000C9485000C
:100060000C9485000C9485000000000024002700FB
:100070002A0000000000250028002B0004040404CE
:100080000404040402020202020203030303030342
:10009000010204081020408001020408102001021F
:1000A00004081020000000080002010000030407FB
:1000B0000000000000000000510511241FBECFEF1A
:1000C000D8E0DEBFCDBF11E0A0E0B1E0E2EFFEE09E
:1000D00002C005900D92A033B107D9F721E0A0E34B
:1000E000B1E001C01D92A83DB207E1F710E0CDE5F7
:1000F000D0E004C02197FE010E947107CC35D107E2
:10010000C9F70E9408030C9477070C940000E7EAF3
:10011000F0E02491E3E9F0E09491EFE7F0E0E4917E
:10012000EE23C9F0222339F0233001F1A8F4213065
:1001300019F1223029F1F0E0EE0FFF1FEE58FF4FCA
:10014000A591B4912FB7F894EC91811126C09095A8
:100150009E239C932FBF08952730A9F02830C9F023
:10016000243049F7209180002F7D03C0209180002A
:100170002F7720938000DFCF24B52F7724BDDBCFEE
:1001800024B52F7DFBCF2091B0002F772093B000B6
:10019000D2CF2091B0002F7DF9CF9E2BDACFAF9236
:1001A000BF92CF92DF92EF92FF920F931F93CF9364
:1001B000DF936C017B018B01040F151FEB015E01C6
:1001C000AE18BF08C017D10759F06991D601ED915B
:1001D000FC910190F081E02DC6010995892B79F7FA
:1001E000C501DF91CF911F910F91FF90EF90DF90AC
:1001F000CF90BF90AF900895FC01538D448D252F73
:1002000030E0842F90E0821B930B541710F0CF96B0
:10021000089501970895FC01918D828D981761F0E2
:10022000A28DAE0FBF2FB11D5D968C91928D9F5FF9
:100230009F73928F90E008958FEF9FEF0895FC01D8
:10024000918D828D981731F0828DE80FF11D858D8B
:1002500090E008958FEF9FEF0895FC01918D228D1E
:10026000892F90E0805C9F4F821B91098F739927A3
:1002700008958BE391E00E942D0121E0892B09F480
:1002800020E0822F089580E090E0892B29F00E94E1
:10029000390181110C9400000895FC01A48DA80F70
:1002A000B92FB11DA35ABF4F2C91848D90E00196B8
:1002B0008F739927848FA689B7892C93A089B189D8
:1002C0008C91837080648C93938D848D981306C079
:1002D0000288F389E02D80818F7D80830895EF92DD
:1002E000FF920F931F93CF93DF93EC0181E0888FF0
:1002F0009B8D8C8D98131AC0E889F989808185FFC0
:1003000015C09FB7F894EE89FF896083E889F98961
:1003100080818370806480839FBF81E090E0DF9163
:10032000CF911F910F91FF90EF900895F62E0B8DB6
:1003300010E00F5F1F4F0F731127E02E8C8D8E1171
:100340000CC00FB607FCFACFE889F989808185FFD8
:10035000F5CFCE010E944D01F1CFEB8DEC0FFD2FBB
:10036000F11DE35AFF4FF0829FB7F8940B8FEA8993
:10037000FB8980818062CFCFCF93DF93EC01888DA2
:100380008823B9F0AA89BB89E889F9898C9185FD10
:1003900003C0808186FD0DC00FB607FCF7CF8C919E
:1003A00085FFF2CF808185FFEDCFCE010E944D0108
:1003B000E9CFDF91CF9108952091000190E4299F2A
:1003C000900111248E50822B80937C0080917A00C2
:1003D000806480937A0080917A0086FDFCCF8091C2
:1003E0007800909179000895FC0101900020E9F7D0
:1003F0003197AF01481B590BBC018BE391E00C9482
:10040000CF008F929F92AF92BF920F931F93CF9383
:10041000DF93CDB7DEB7A1970FB6F894DEBF0FBE5E
:10042000CDBF19A2423008F44AE08E010F5D1F4F84
:10043000842E912CB12CA12CA50194010E944F0770
:10044000E62FB901CA01EA30F4F4E05DD801EE9379
:100450008D01232B242B252B79F790E080E010973A
:1004600019F0CD010E94F401A1960FB6F894DEBFF9
:100470000FBECDBFDF91CF911F910F91BF90AF9075
:100480009F908F900895E95CE1CFCF92DF92EF9239
:10049000FF92CF93DF936B017C016DE28BE391E0E0
:1004A0000E946F01EC0166277727CB016C197D094B
:1004B0008E099F094AE00E9401028C0F9D1FDF9167
:1004C000CF91FF90EF90DF90CF9008951F920F9201
:1004D0000FB60F9211242F933F938F939F93AF9357
:1004E000BF938091370190913801A0913901B0916B
:1004F0003A013091360123E0230F2D3758F501964C
:10050000A11DB11D209336018093370190933801CE
:10051000A0933901B0933A01809132019091330157
:10052000A0913401B09135010196A11DB11D8093B8
:10053000320190933301A0933401B0933501BF9100
:10054000AF919F918F913F912F910F900FBE0F9080
:100550001F90189526E8230F0296A11DB11DD2CF3A
:100560001F920F920FB60F9211242F933F934F9328
:100570005F936F937F938F939F93AF93BF93EF930B
:10058000FF938BE391E00E944D01FF91EF91BF91AA
:10059000AF919F918F917F916F915F914F913F911B
:1005A0002F910F900FBE0F901F9018951F920F92D2
:1005B0000FB60F9211242F938F939F93EF93FF9376
:1005C000E0914B01F0914C018081E0915101F0915B
:1005D000520182FD1BC09081809154018F5F8F7307
:1005E00020915501821741F0E0915401F0E0E55C63
:1005F000FE4F958F80935401FF91EF919F918F91C2
:100600002F910F900FBE0F901F9018958081F4CFFF
:10061000789484B5826084BD84B5816084BD85B5DD
:10062000826085BD85B5816085BD80916E008160E9
:1006300080936E001092810080918100826080938F
:100640008100809181008160809381008091800091
:100650008160809380008091B10084608093B100BC
:100660008091B00081608093B00080917A008460B6
:1006700080937A0080917A00826080937A008091E2
:100680007A00816080937A0080917A0080688093FC
:100690007A001092C100E0914B01F0914C0182E090
:1006A0008083E0914701F09148011082E091490177
:1006B000F0914A018FEC808310925301E0914F0139
:1006C000F091500186E08083E0914D01F0914E0160
:1006D000808180618083E0914D01F0914E018081A5
:1006E00088608083E0914D01F0914E0180818068A7
:1006F0008083E0914D01F0914E0180818F7D808358
:1007000087E191E00E94F4018CE191E00E94F40104
:1007100083E08093000170E0272E70E0372E812C5B
:10072000912CE9E3AE2EE3E4BE2E8EE00E94DC01C4
:10073000EC018FE00E94DC018C018534910544F4CA
:100740008092010190920201A0920301B0920401F3
:100750008091300190913101019690933101809305
:100760003001893E9340B4F1BE010D2E000C880B80
:10077000990B97FF55C00E9445028FE191E00E94BE
:10078000F401C0900101D0900201E0900301F090CB
:100790000401A7019601C701B6010E944A078823F8
:1007A00009F442C083E291E00E94F4018FE191E0FC
:1007B0000E94F401B801110F880B990B97FFC6C076
:1007C0000E9445028CE191E00E94F40110923101F7
:1007D000109230016091010170910201809103013A
:1007E00090910401CD32D1050CF0F8C02FE632E132
:1007F00043E85AE30E947F056B017C0120E030E072
:100800004FE753E40E94D80618160CF4A3C0C09218
:100810000101D0920201E0920301F0920401A6C00E
:100820004AE00E940102A9CF26013701E89477F837
:100830002FEF3FEF4FE75FE7C301B2010E944A0786
:1008400081110DC02FEF3FEF4FE75FE7C301B2010A
:100850000E94EB0518161CF487E291E0A5CF2FEF5C
:100860003FEF4FE75FE4C701B6010E94D8061816B4
:100870001CF48BE291E098CF2FEF3FEF4FE75FEC56
:10088000C701B6010E94EB0587FDF3CF20E030E001
:10089000A901C701B6010E94EB0587FF09C06DE2FF
:1008A0008BE391E00E946F01F7FAF094F7F8F0946F
:1008B0002AE037ED43EA5BE3C701B6010E947F05FA
:1008C0002B013C010E94F7056B017C010E9426066A
:1008D0009B01AC01C301B2010E947E052B013C01CA
:1008E0004AE0C701B6010E9401026EE28BE391E08B
:1008F0000E946F0120E030E040E251E4C301B20108
:100900000E94DD062B013C010E94F7056B01F12CD2
:10091000E12C4AE0C701B6010E940102C701B601FD
:100920000E9426069B01AC01C301B2010E947E0514
:1009300020E030E040E251E40E94DD060E94F7052D
:1009400090E080E04AE00E94010230CF4AE00E943D
:10095000010238CF80E090E0AFE7B3E4809301017B
:1009600090930201A0930301B093040160910101EF
:100970007091020180910301909104010E94F005A1
:10098000AB01CB01E3E9F0E0C491EFE7F0E02491A3
:10099000222399F030E0220F331FF901E859FF4F6D
:1009A000A591B491F901EE58FF4F259134912FB7DD
:1009B000F8943C91C32BCC932FBF009759F580E05E
:1009C0000E9487002114310409F4AFCE0E9439013E
:1009D000882309F4AACE0E940000A7CEE8970CF461
:1009E000C5CF2FE632E143E85AE30E947E056B0152
:1009F0007C0120E030E049E353E40E94EB0587FFEF
:100A000006CF8092010190920201A0920301B09260
:100A10000401ACCF8F3F910511F481E0D1CFE7EA1B
:100A2000F0E02491233019F140F42130B1F022306C
:100A3000C9F0803891058CF7C2CF273011F12830EA
:100A400041F12430B1F78091800080628093800072
:100A500050938B0040938A00B5CF84B5806884BDE5
:100A600047BDB0CF84B5806284BD48BDABCF809117
:100A700080008068809380005093890040938800B4
:100A8000A1CF8091B00080688093B0004093B30004
:100A900099CF8091B00080628093B0004093B40001
:100AA00091CFEBE3F1E01382128288EE93E0A0E0B5
:100AB000B0E084839583A683B78389E091E0918336
:100AC000808385EC90E09587848784EC90E097871D
:100AD000868780EC90E0918B808B81EC90E0938B0B
:100AE000828B82EC90E0958B848B86EC90E0978BE8
:100AF000868B118E128E138E148E08955058BB273C
:100B0000AA270E9496050C949E060E94900638F033
:100B10000E94970620F039F49F3F19F426F40C94B4
:100B20008D060EF4E095E7FB0C948706E92F0E94F2
:100B3000AF0658F3BA17620773078407950720F0CA
:100B400079F4A6F50C94D1060EF4E0950B2EBA2F8D
:100B5000A02D0B01B90190010C01CA01A0011124C3
:100B6000FF27591B99F0593F50F4503E68F11A166F
:100B7000F040A22F232F342F4427585FF3CF469500
:100B800037952795A795F0405395C9F77EF41F1622
:100B9000BA0B620B730B840BBAF09150A1F0FF0FEC
:100BA000BB1F661F771F881FC2F70EC0BA0F621FD8
:100BB000731F841F48F4879577956795B795F795C8
:100BC0009E3F08F0B0CF9395880F08F09927EE0F5D
:100BD0009795879508950E94630608F481E008952B
:100BE0000E94F7056894B1110C94D20608950E94F2
:100BF000B70688F09F5798F0B92F9927B751B0F0F2
:100C0000E1F0660F771F881F991F1AF0BA95C9F790
:100C100014C0B13091F00E94D106B1E008950C9457
:100C2000D106672F782F8827B85F39F0B93FCCF30A
:100C3000869577956795B395D9F73EF4909580950D
:100C4000709561957F4F8F4F9F4F0895E89409C02D
:100C500097FB3EF490958095709561957F4F8F4FEF
:100C60009F4F9923A9F0F92F96E9BB279395F69505
:100C7000879577956795B795F111F8CFFAF4BB0F83
:100C800011F460FF1BC06F5F7F4F8F4F9F4F16C0E7
:100C9000882311F096E911C0772321F09EE8872F71
:100CA000762F05C0662371F096E8862F70E060E02D
:100CB0002AF09A95660F771F881FDAF7880F9695A6
:100CC000879597F90895990F0008550FAA0BE0E84A
:100CD000FEEF16161706E807F907C0F012161306FE
:100CE000E407F50798F0621B730B840B950B39F43E
:100CF0000A2661F0232B242B252B21F408950A26A4
:100D000009F4A140A6958FEF811D811D089597F9E3
:100D10009F6780E870E060E008959FEF80EC0895A1
:100D200000240A94161617061806090608950024CA
:100D30000A9412161306140605060895092E039444
:100D4000000C11F4882352F0BB0F40F4BF2B11F4B8
:100D500060FF04C06F5F7F4F8F4F9F4F089557FD17
:100D60009058440F551F59F05F3F71F04795880F19
:100D700097FB991F61F09F3F79F0879508951216B0
:100D800013061406551FF2CF4695F1DF08C016165C
:100D900017061806991FF1CF86957105610508940D
:100DA0000895E894BB2766277727CB0197F9089524
:100DB0000E94630608F48FEF08950E94F0060C94D9
:100DC0009E060E94900638F00E94970620F0952318
:100DD00011F00C9487060C948D0611240C94D20605
:100DE0000E94AF0670F3959FC1F3950F50E0551F19
:100DF000629FF001729FBB27F00DB11D639FAA2770
:100E0000F00DB11DAA1F649F6627B00DA11D661FBE
:100E1000829F2227B00DA11D621F739FB00DA11DDF
:100E2000621F839FA00D611D221F749F3327A00D99
:100E3000611D231F849F600D211D822F762F6A2F35
:100E400011249F5750409AF0F1F088234AF0EE0F9A
:100E5000FF1FBB1F661F771F881F91505040A9F7C7
:100E60009E3F510580F00C9487060C94D2065F3F9C
:100E7000E4F3983ED4F3869577956795B795F79503
:100E8000E7959F5FC1F7FE2B880F911D969587957B
:100E900097F908950E946306880B990B0895A1E2C3
:100EA0001A2EAA1BBB1BFD010DC0AA1FBB1FEE1FE4
:100EB000FF1FA217B307E407F50720F0A21BB30B2F
:100EC000E40BF50B661F771F881F991F1A9469F7AB
:100ED00060957095809590959B01AC01BD01CF0107
:100EE0000895EE0FFF1F0590F491E02D0994F894FA
:100EF000FFCF0100003943000000006F01CF00FC6C
:100F000000BC012D010B011F0154657374000D0A13
:100F100000203A20006E616E00696E66006F766692
:020F20000000CF
:107800000C94343C0C94513C0C94513C0C94513CE1
:107810000C94513C0C94513C0C94513C0C94513CB4
:107820000C94513C0C94513C0C94513C0C94513CA4
:107830000C94513C0C94513C0C94513C0C94513C94
:107840000C94513C0C94513C0C94513C0C94513C84
:107850000C94513C0C94513C0C94513C0C94513C74
:107860000C94513C0C94513C11241FBECFEFD8E036
:10787000DEBFCDBF11E0A0E0B1E0ECE9FFE702C060
:1078800005900D92A230B107D9F712E0A2E0B1E065
:1078900001C01D92AD30B107E1F70E942D3D0C945F
:1078A000CC3F0C94003C982F959595959595959582
:1078B000905D8F708A307CF0282F295A8091C0000B
:1078C00085FFFCCF9093C6008091C00085FFFCCF60
:1078D0002093C6000895282F205DF0CF982F809127
:1078E000C00085FFFCCF9093C6000895EF92FF92F1
:1078F0000F931F93EE24FF2487018091C00087FD22
:1079000017C00894E11CF11C011D111D81E4E8164B
:1079100082E4F8068FE0080780E0180770F3E09132
:107920000401F091050109958091C00087FFE9CF1E
:107930008091C6001F910F91FF90EF9008950E94D3
:10794000763C982F8091C00085FFFCCF9093C600B5
:1079500091362CF490330CF09053892F089597555D
:10796000892F08951F930E949F3C182F0E949F3CCF
:107970001295107F810F1F9108951F93182F882350
:1079800021F00E94763C1150E1F71F9108951F935A
:10799000182F0E94763C803249F0809103018F5F5E
:1079A000809303018530C1F01F9108958091C0003C
:1079B00085FFFCCF84E18093C6008091C00085FFE5
:1079C000FCCF1093C6008091C00085FFFCCF80E102
:1079D0008093C6001F910895E0910401F091050184
:1079E00009951F9108950E94763C803241F0809164
:1079F00003018F5F80930301853081F008958091AA
:107A0000C00085FFFCCF84E18093C6008091C00058
:107A100085FFFCCF80E18093C6000895E0910401CA
:107A2000F09105010995089540E951E08823A1F0FE
:107A30002D9A28EE33E0FA013197F1F721503040CA
:107A4000D1F72D9828EE33E0FA013197F1F7215064
:107A50003040D1F7815061F708953F924F925F9285
:107A60006F927F928F929F92AF92BF92CF92DF924E
:107A7000EF92FF920F931F93CF93DF93000080E16B
:107A80008093C4001092C50088E18093C10086E015
:107A90008093C2005098589A259A81E00E94143D24
:107AA00024E1F22E9EE1E92E85E9D82E0FE0C02ECA
:107AB00010E1B12EAA24A394B1E49B2EA6E58A2E50
:107AC000F2E57F2EE0E26E2E79E4572E63E5462E36
:107AD00050E5352E0E94763C8033B1F18133B9F107
:107AE000803409F46FC0813409F476C0823409F41B
:107AF00085C0853409F488C0803531F1823521F1A3
:107B0000813511F1853509F485C0863509F48DC0BC
:107B1000843609F496C0843709F403C1853709F423
:107B200072C1863709F466C0809103018F5F80932C
:107B30000301853079F6E0910401F0910501099582
:107B40000E94763C803351F60E94F33CC3CF0E94E2
:107B5000763C803249F78091C00085FFFCCFF092DF
:107B6000C6008091C00085FFFCCF9092C600809136
:107B7000C00085FFFCCF8092C6008091C00085FFC9
:107B8000FCCF7092C6008091C00085FFFCCF609250
:107B9000C6008091C00085FFFCCF5092C600809146
:107BA000C00085FFFCCF4092C6008091C00085FFD9
:107BB000FCCF3092C6008091C00085FFFCCFB09210
:107BC000C60088CF0E94763C863808F4BDCF0E945C
:107BD000763C0E94F33C7ECF0E94763C803809F4CC
:107BE0009CC0813809F40BC1823809F43CC1883942
:107BF00009F48FC080E00E94C73C6CCF84E10E94F2
:107C0000BD3C0E94F33C66CF85E00E94BD3C0E94D3
:107C1000F33C60CF0E94763C809306010E94763C44
:107C2000809307010E94F33C55CF0E94763C80333D
:107C300009F41DC183E00E94BD3C80E00E94C73C66
:107C400049CF0E94763C809309020E94763C809343
:107C5000080280910C028E7F80930C020E94763C79
:107C6000853409F415C18091080290910902892B8D
:107C700089F000E010E00E94763CF801E85FFE4FDA
:107C800080830F5F1F4F80910802909109020817AF
:107C9000190788F30E94763C803209F045CF809125
:107CA0000C0280FF01C16091060170910701660F0F
:107CB000771F7093070160930601A0910802B091AD
:107CC00009021097C9F0E8E0F1E09B01AD014E0F09
:107CD0005F1FF999FECF32BD21BD819180BDFA9A17
:107CE000F99A2F5F3F4FE417F50799F76A0F7B1F4B
:107CF00070930701609306018091C00085FFFCCF5F
:107D0000F092C6008091C00085FFFCCFB092C60003
:107D1000E1CE83E00E94C73CDDCE82E00E94C73CFA
:107D2000D9CE0E94763C809309020E94763C8093D3
:107D300008028091060190910701880F991F909386
:107D40000701809306010E94763C853409F4A6C0A1
:107D500080910C028E7F80930C020E94763C8032D0
:107D600009F0B8CE8091C00085FFFCCFF092C6002C
:107D7000609108027091090261157105B9F140E046
:107D800050E080910C02A82FA170B82FB27011C0E2
:107D9000BB2309F45CC0E0910601F0910701319624
:107DA000F0930701E09306014F5F5F4F46175707B7
:107DB000E8F4AA2369F3F999FECF209106013091E6
:107DC000070132BD21BDF89A90B58091C00085FFB2
:107DD000FCCF9093C6002F5F3F4F30930701209355
:107DE00006014F5F5F4F4617570718F38091C00099
:107DF00085FDE5CE8091C00085FFF8CFE0CE81E023
:107E00000E94C73C67CE0E94763C803209F08CCE3F
:107E10008091C00085FFFCCFF092C6008091C00029
:107E200085FFFCCFE092C6008091C00085FFFCCFAB
:107E3000D092C6008091C00085FFFCCFC092C600E2
:107E40008091C00085FFFCCFB092C60043CEE09188
:107E50000601F091070194918091C00085FFFCCF4D
:107E60009093C6009CCF80E10E94C73C33CE0E9415
:107E7000763C0E94763C182F0E94763C112309F430
:107E800083C0113009F484C08FE00E94C73C22CE29
:107E900080910C02816080930C02E5CE80910C02EF
:107EA000816080930C0259CF809107018823880F4D
:107EB000880B8A2180930B02809106019091070123
:107EC000880F991F90930701809306018091080203
:107ED00080FF09C080910802909109020196909359
:107EE000090280930802F894F999FECF1127E091D6
:107EF0000601F0910701C8E0D1E08091080290915D
:107F00000902103091F40091570001700130D9F34B
:107F100003E000935700E89500915700017001308D
:107F2000D9F301E100935700E89509901990009169
:107F3000570001700130D9F301E000935700E89534
:107F40001395103498F011270091570001700130FB
:107F5000D9F305E000935700E895009157000170B0
:107F60000130D9F301E100935700E895329602976A
:107F700009F0C7CF103011F00296E5CF112480919F
:107F8000C00085FFB9CEBCCE8EE10E94C73CA2CD19
:0E7F900085E90E94C73C9ECDF894FFCF80008B
:00000001FF
